{
	"contracts/AdamToken.sol": {
		"AdamToken": {
			"abi": [
				{
					"inputs": [],
					"stateMutability": "nonpayable",
					"type": "constructor"
				},
				{
					"inputs": [],
					"name": "burnTokens",
					"outputs": [],
					"stateMutability": "nonpayable",
					"type": "function"
				},
				{
					"inputs": [
						{
							"internalType": "address",
							"name": "walletAddress",
							"type": "address"
						}
					],
					"name": "faucet",
					"outputs": [],
					"stateMutability": "nonpayable",
					"type": "function"
				},
				{
					"inputs": [],
					"name": "initialTokenSupply",
					"outputs": [
						{
							"internalType": "uint256",
							"name": "",
							"type": "uint256"
						}
					],
					"stateMutability": "view",
					"type": "function"
				},
				{
					"inputs": [
						{
							"internalType": "address",
							"name": "",
							"type": "address"
						}
					],
					"name": "ledger",
					"outputs": [
						{
							"internalType": "uint256",
							"name": "",
							"type": "uint256"
						}
					],
					"stateMutability": "view",
					"type": "function"
				},
				{
					"inputs": [],
					"name": "owner",
					"outputs": [
						{
							"internalType": "address",
							"name": "",
							"type": "address"
						}
					],
					"stateMutability": "view",
					"type": "function"
				},
				{
					"inputs": [
						{
							"internalType": "address",
							"name": "",
							"type": "address"
						}
					],
					"name": "receivedCoin",
					"outputs": [
						{
							"internalType": "bool",
							"name": "",
							"type": "bool"
						}
					],
					"stateMutability": "view",
					"type": "function"
				},
				{
					"inputs": [],
					"name": "remintTokens",
					"outputs": [],
					"stateMutability": "nonpayable",
					"type": "function"
				},
				{
					"inputs": [
						{
							"internalType": "address",
							"name": "walletAddress",
							"type": "address"
						}
					],
					"name": "tokenAmount",
					"outputs": [
						{
							"internalType": "uint256",
							"name": "",
							"type": "uint256"
						}
					],
					"stateMutability": "view",
					"type": "function"
				},
				{
					"inputs": [],
					"name": "transactionFeePercent",
					"outputs": [
						{
							"internalType": "uint256",
							"name": "",
							"type": "uint256"
						}
					],
					"stateMutability": "view",
					"type": "function"
				},
				{
					"inputs": [
						{
							"internalType": "address",
							"name": "walletAddress",
							"type": "address"
						},
						{
							"internalType": "uint256",
							"name": "amount",
							"type": "uint256"
						}
					],
					"name": "transfer",
					"outputs": [],
					"stateMutability": "payable",
					"type": "function"
				}
			],
			"devdoc": {
				"kind": "dev",
				"methods": {},
				"version": 1
			},
			"evm": {
				"assembly": "    /* \"contracts/AdamToken.sol\":57:2579  contract AdamToken{... */\n  mstore(0x40, 0xa0)\n    /* \"contracts/AdamToken.sol\":117:124  1000000 */\n  0x0f4240\n    /* \"contracts/AdamToken.sol\":81:124  uint256 public initialTokenSupply = 1000000 */\n  0x00\n  sstore\n    /* \"contracts/AdamToken.sol\":153:158  10000 */\n  0x2710\n    /* \"contracts/AdamToken.sol\":130:158  uint256 faucetAmount = 10000 */\n  0x01\n  sstore\n    /* \"contracts/AdamToken.sol\":465:513  constructor(){... */\n  callvalue\n  dup1\n  iszero\n  tag_1\n  jumpi\n  0x00\n  dup1\n  revert\ntag_1:\n  pop\n    /* \"contracts/AdamToken.sol\":496:506  msg.sender */\n  caller\n    /* \"contracts/AdamToken.sol\":488:506  owner = msg.sender */\n  0xffffffffffffffffffffffffffffffffffffffff\n  and\n  0x80\n  dup2\n  0xffffffffffffffffffffffffffffffffffffffff\n  and\n  dup2\n  mstore\n  pop\n  pop\n    /* \"contracts/AdamToken.sol\":57:2579  contract AdamToken{... */\n  mload(0x80)\n  codecopy(0x00, dataOffset(sub_0), dataSize(sub_0))\n  0x00\n  assignImmutable(\"0x1572b593c53d839d80004aa4b8c51211864104f06ace9e22be9c4365b50655ea\")\n  return(0x00, dataSize(sub_0))\nstop\n\nsub_0: assembly {\n        /* \"contracts/AdamToken.sol\":57:2579  contract AdamToken{... */\n      mstore(0x40, 0x80)\n      jumpi(tag_1, lt(calldatasize, 0x04))\n      shr(0xe0, calldataload(0x00))\n      dup1\n      0xa9059cbb\n      gt\n      tag_12\n      jumpi\n      dup1\n      0xa9059cbb\n      eq\n      tag_7\n      jumpi\n      dup1\n      0xa96b7f05\n      eq\n      tag_8\n      jumpi\n      dup1\n      0xb86d1d63\n      eq\n      tag_9\n      jumpi\n      dup1\n      0xeb13a7d2\n      eq\n      tag_10\n      jumpi\n      dup1\n      0xfbfa941f\n      eq\n      tag_11\n      jumpi\n      jump(tag_1)\n    tag_12:\n      dup1\n      0x08003f78\n      eq\n      tag_2\n      jumpi\n      dup1\n      0x0c8f5e00\n      eq\n      tag_3\n      jumpi\n      dup1\n      0x8da5cb5b\n      eq\n      tag_4\n      jumpi\n      dup1\n      0x8ee17775\n      eq\n      tag_5\n      jumpi\n      dup1\n      0x9101150e\n      eq\n      tag_6\n      jumpi\n    tag_1:\n      0x00\n      dup1\n      revert\n        /* \"contracts/AdamToken.sol\":1958:2131  function burnTokens() public isOwner{... */\n    tag_2:\n      callvalue\n      dup1\n      iszero\n      tag_13\n      jumpi\n      0x00\n      dup1\n      revert\n    tag_13:\n      pop\n      tag_14\n      tag_15\n      jump\t// in\n    tag_14:\n      stop\n        /* \"contracts/AdamToken.sol\":164:213  uint256 public constant transactionFeePercent = 1 */\n    tag_3:\n      callvalue\n      dup1\n      iszero\n      tag_16\n      jumpi\n      0x00\n      dup1\n      revert\n    tag_16:\n      pop\n      tag_17\n      tag_18\n      jump\t// in\n    tag_17:\n      mload(0x40)\n      tag_19\n      swap2\n      swap1\n      tag_20\n      jump\t// in\n    tag_19:\n      mload(0x40)\n      dup1\n      swap2\n      sub\n      swap1\n      return\n        /* \"contracts/AdamToken.sol\":356:386  address public immutable owner */\n    tag_4:\n      callvalue\n      dup1\n      iszero\n      tag_21\n      jumpi\n      0x00\n      dup1\n      revert\n    tag_21:\n      pop\n      tag_22\n      tag_23\n      jump\t// in\n    tag_22:\n      mload(0x40)\n      tag_24\n      swap2\n      swap1\n      tag_25\n      jump\t// in\n    tag_24:\n      mload(0x40)\n      dup1\n      swap2\n      sub\n      swap1\n      return\n        /* \"contracts/AdamToken.sol\":305:349  mapping(address => bool) public receivedCoin */\n    tag_5:\n      callvalue\n      dup1\n      iszero\n      tag_26\n      jumpi\n      0x00\n      dup1\n      revert\n    tag_26:\n      pop\n      tag_27\n      0x04\n      dup1\n      calldatasize\n      sub\n      dup2\n      add\n      swap1\n      tag_28\n      swap2\n      swap1\n      tag_29\n      jump\t// in\n    tag_28:\n      tag_30\n      jump\t// in\n    tag_27:\n      mload(0x40)\n      tag_31\n      swap2\n      swap1\n      tag_32\n      jump\t// in\n    tag_31:\n      mload(0x40)\n      dup1\n      swap2\n      sub\n      swap1\n      return\n        /* \"contracts/AdamToken.sol\":2236:2408  function remintTokens() public isOwner{... */\n    tag_6:\n      callvalue\n      dup1\n      iszero\n      tag_33\n      jumpi\n      0x00\n      dup1\n      revert\n    tag_33:\n      pop\n      tag_34\n      tag_35\n      jump\t// in\n    tag_34:\n      stop\n        /* \"contracts/AdamToken.sol\":760:1640  function transfer(address walletAddress, uint256 amount) public payable{... */\n    tag_7:\n      tag_36\n      0x04\n      dup1\n      calldatasize\n      sub\n      dup2\n      add\n      swap1\n      tag_37\n      swap2\n      swap1\n      tag_38\n      jump\t// in\n    tag_37:\n      tag_39\n      jump\t// in\n    tag_36:\n      stop\n        /* \"contracts/AdamToken.sol\":1719:1882  function tokenAmount(address walletAddress) public view returns (uint256){... */\n    tag_8:\n      callvalue\n      dup1\n      iszero\n      tag_40\n      jumpi\n      0x00\n      dup1\n      revert\n    tag_40:\n      pop\n      tag_41\n      0x04\n      dup1\n      calldatasize\n      sub\n      dup2\n      add\n      swap1\n      tag_42\n      swap2\n      swap1\n      tag_29\n      jump\t// in\n    tag_42:\n      tag_43\n      jump\t// in\n    tag_41:\n      mload(0x40)\n      tag_44\n      swap2\n      swap1\n      tag_20\n      jump\t// in\n    tag_44:\n      mload(0x40)\n      dup1\n      swap2\n      sub\n      swap1\n      return\n        /* \"contracts/AdamToken.sol\":519:754  function faucet(address walletAddress) public{... */\n    tag_9:\n      callvalue\n      dup1\n      iszero\n      tag_45\n      jumpi\n      0x00\n      dup1\n      revert\n    tag_45:\n      pop\n      tag_46\n      0x04\n      dup1\n      calldatasize\n      sub\n      dup2\n      add\n      swap1\n      tag_47\n      swap2\n      swap1\n      tag_29\n      jump\t// in\n    tag_47:\n      tag_48\n      jump\t// in\n    tag_46:\n      stop\n        /* \"contracts/AdamToken.sol\":81:124  uint256 public initialTokenSupply = 1000000 */\n    tag_10:\n      callvalue\n      dup1\n      iszero\n      tag_49\n      jumpi\n      0x00\n      dup1\n      revert\n    tag_49:\n      pop\n      tag_50\n      tag_51\n      jump\t// in\n    tag_50:\n      mload(0x40)\n      tag_52\n      swap2\n      swap1\n      tag_20\n      jump\t// in\n    tag_52:\n      mload(0x40)\n      dup1\n      swap2\n      sub\n      swap1\n      return\n        /* \"contracts/AdamToken.sol\":258:299  mapping(address => uint256) public ledger */\n    tag_11:\n      callvalue\n      dup1\n      iszero\n      tag_53\n      jumpi\n      0x00\n      dup1\n      revert\n    tag_53:\n      pop\n      tag_54\n      0x04\n      dup1\n      calldatasize\n      sub\n      dup2\n      add\n      swap1\n      tag_55\n      swap2\n      swap1\n      tag_29\n      jump\t// in\n    tag_55:\n      tag_56\n      jump\t// in\n    tag_54:\n      mload(0x40)\n      tag_57\n      swap2\n      swap1\n      tag_20\n      jump\t// in\n    tag_57:\n      mload(0x40)\n      dup1\n      swap2\n      sub\n      swap1\n      return\n        /* \"contracts/AdamToken.sol\":1958:2131  function burnTokens() public isOwner{... */\n    tag_15:\n        /* \"contracts/AdamToken.sol\":2461:2466  owner */\n      immutable(\"0x1572b593c53d839d80004aa4b8c51211864104f06ace9e22be9c4365b50655ea\")\n        /* \"contracts/AdamToken.sol\":2447:2466  msg.sender == owner */\n      0xffffffffffffffffffffffffffffffffffffffff\n      and\n        /* \"contracts/AdamToken.sol\":2447:2457  msg.sender */\n      caller\n        /* \"contracts/AdamToken.sol\":2447:2466  msg.sender == owner */\n      0xffffffffffffffffffffffffffffffffffffffff\n      and\n      eq\n        /* \"contracts/AdamToken.sol\":2439:2559  require(msg.sender == owner, \"You do not have access to this function as you are not the owner of this smart contract.\") */\n      tag_59\n      jumpi\n      mload(0x40)\n      0x08c379a000000000000000000000000000000000000000000000000000000000\n      dup2\n      mstore\n      0x04\n      add\n      tag_60\n      swap1\n      tag_61\n      jump\t// in\n    tag_60:\n      mload(0x40)\n      dup1\n      swap2\n      sub\n      swap1\n      revert\n    tag_59:\n        /* \"contracts/AdamToken.sol\":2123:2124  0 */\n      0x00\n        /* \"contracts/AdamToken.sol\":2099:2105  ledger */\n      0x02\n        /* \"contracts/AdamToken.sol\":2099:2120  ledger[address(this)] */\n      0x00\n        /* \"contracts/AdamToken.sol\":2114:2118  this */\n      address\n        /* \"contracts/AdamToken.sol\":2099:2120  ledger[address(this)] */\n      0xffffffffffffffffffffffffffffffffffffffff\n      and\n      0xffffffffffffffffffffffffffffffffffffffff\n      and\n      dup2\n      mstore\n      0x20\n      add\n      swap1\n      dup2\n      mstore\n      0x20\n      add\n      0x00\n      keccak256\n        /* \"contracts/AdamToken.sol\":2099:2124  ledger[address(this)] = 0 */\n      dup2\n      swap1\n      sstore\n      pop\n        /* \"contracts/AdamToken.sol\":1958:2131  function burnTokens() public isOwner{... */\n      jump\t// out\n        /* \"contracts/AdamToken.sol\":164:213  uint256 public constant transactionFeePercent = 1 */\n    tag_18:\n        /* \"contracts/AdamToken.sol\":212:213  1 */\n      0x01\n        /* \"contracts/AdamToken.sol\":164:213  uint256 public constant transactionFeePercent = 1 */\n      dup2\n      jump\t// out\n        /* \"contracts/AdamToken.sol\":356:386  address public immutable owner */\n    tag_23:\n      immutable(\"0x1572b593c53d839d80004aa4b8c51211864104f06ace9e22be9c4365b50655ea\")\n      dup2\n      jump\t// out\n        /* \"contracts/AdamToken.sol\":305:349  mapping(address => bool) public receivedCoin */\n    tag_30:\n      mstore(0x20, 0x03)\n      dup1\n      0x00\n      mstore\n      keccak256(0x00, 0x40)\n      0x00\n      swap2\n      pop\n      sload\n      swap1\n      0x0100\n      exp\n      swap1\n      div\n      0xff\n      and\n      dup2\n      jump\t// out\n        /* \"contracts/AdamToken.sol\":2236:2408  function remintTokens() public isOwner{... */\n    tag_35:\n        /* \"contracts/AdamToken.sol\":2461:2466  owner */\n      immutable(\"0x1572b593c53d839d80004aa4b8c51211864104f06ace9e22be9c4365b50655ea\")\n        /* \"contracts/AdamToken.sol\":2447:2466  msg.sender == owner */\n      0xffffffffffffffffffffffffffffffffffffffff\n      and\n        /* \"contracts/AdamToken.sol\":2447:2457  msg.sender */\n      caller\n        /* \"contracts/AdamToken.sol\":2447:2466  msg.sender == owner */\n      0xffffffffffffffffffffffffffffffffffffffff\n      and\n      eq\n        /* \"contracts/AdamToken.sol\":2439:2559  require(msg.sender == owner, \"You do not have access to this function as you are not the owner of this smart contract.\") */\n      tag_64\n      jumpi\n      mload(0x40)\n      0x08c379a000000000000000000000000000000000000000000000000000000000\n      dup2\n      mstore\n      0x04\n      add\n      tag_65\n      swap1\n      tag_61\n      jump\t// in\n    tag_65:\n      mload(0x40)\n      dup1\n      swap2\n      sub\n      swap1\n      revert\n    tag_64:\n        /* \"contracts/AdamToken.sol\":2345:2351  ledger */\n      0x02\n        /* \"contracts/AdamToken.sol\":2345:2366  ledger[address(this)] */\n      0x00\n        /* \"contracts/AdamToken.sol\":2360:2364  this */\n      address\n        /* \"contracts/AdamToken.sol\":2345:2366  ledger[address(this)] */\n      0xffffffffffffffffffffffffffffffffffffffff\n      and\n      0xffffffffffffffffffffffffffffffffffffffff\n      and\n      dup2\n      mstore\n      0x20\n      add\n      swap1\n      dup2\n      mstore\n      0x20\n      add\n      0x00\n      keccak256\n      sload\n        /* \"contracts/AdamToken.sol\":2323:2341  initialTokenSupply */\n      0x00\n      dup1\n        /* \"contracts/AdamToken.sol\":2323:2366  initialTokenSupply += ledger[address(this)] */\n      dup3\n      dup3\n      sload\n      tag_67\n      swap2\n      swap1\n      tag_68\n      jump\t// in\n    tag_67:\n      swap3\n      pop\n      pop\n      dup2\n      swap1\n      sstore\n      pop\n        /* \"contracts/AdamToken.sol\":2400:2401  0 */\n      0x00\n        /* \"contracts/AdamToken.sol\":2376:2382  ledger */\n      0x02\n        /* \"contracts/AdamToken.sol\":2376:2397  ledger[address(this)] */\n      0x00\n        /* \"contracts/AdamToken.sol\":2391:2395  this */\n      address\n        /* \"contracts/AdamToken.sol\":2376:2397  ledger[address(this)] */\n      0xffffffffffffffffffffffffffffffffffffffff\n      and\n      0xffffffffffffffffffffffffffffffffffffffff\n      and\n      dup2\n      mstore\n      0x20\n      add\n      swap1\n      dup2\n      mstore\n      0x20\n      add\n      0x00\n      keccak256\n        /* \"contracts/AdamToken.sol\":2376:2401  ledger[address(this)] = 0 */\n      dup2\n      swap1\n      sstore\n      pop\n        /* \"contracts/AdamToken.sol\":2236:2408  function remintTokens() public isOwner{... */\n      jump\t// out\n        /* \"contracts/AdamToken.sol\":760:1640  function transfer(address walletAddress, uint256 amount) public payable{... */\n    tag_39:\n        /* \"contracts/AdamToken.sol\":1161:1183  uint256 transactionFee */\n      0x00\n        /* \"contracts/AdamToken.sol\":1194:1197  100 */\n      0x64\n        /* \"contracts/AdamToken.sol\":1187:1193  amount */\n      dup3\n        /* \"contracts/AdamToken.sol\":1187:1197  amount/100 */\n      tag_70\n      swap2\n      swap1\n      tag_71\n      jump\t// in\n    tag_70:\n        /* \"contracts/AdamToken.sol\":1161:1198  uint256 transactionFee = (amount/100) */\n      swap1\n      pop\n        /* \"contracts/AdamToken.sol\":1208:1238  uint256 totalTransactionAmount */\n      0x00\n        /* \"contracts/AdamToken.sol\":1250:1264  transactionFee */\n      dup2\n        /* \"contracts/AdamToken.sol\":1241:1247  amount */\n      dup4\n        /* \"contracts/AdamToken.sol\":1241:1264  amount + transactionFee */\n      tag_72\n      swap2\n      swap1\n      tag_68\n      jump\t// in\n    tag_72:\n        /* \"contracts/AdamToken.sol\":1208:1264  uint256 totalTransactionAmount = amount + transactionFee */\n      swap1\n      pop\n        /* \"contracts/AdamToken.sol\":1304:1326  totalTransactionAmount */\n      dup1\n        /* \"contracts/AdamToken.sol\":1282:1288  ledger */\n      0x02\n        /* \"contracts/AdamToken.sol\":1282:1300  ledger[msg.sender] */\n      0x00\n        /* \"contracts/AdamToken.sol\":1289:1299  msg.sender */\n      caller\n        /* \"contracts/AdamToken.sol\":1282:1300  ledger[msg.sender] */\n      0xffffffffffffffffffffffffffffffffffffffff\n      and\n      0xffffffffffffffffffffffffffffffffffffffff\n      and\n      dup2\n      mstore\n      0x20\n      add\n      swap1\n      dup2\n      mstore\n      0x20\n      add\n      0x00\n      keccak256\n      sload\n        /* \"contracts/AdamToken.sol\":1282:1326  ledger[msg.sender] >= totalTransactionAmount */\n      lt\n      iszero\n        /* \"contracts/AdamToken.sol\":1274:1387  require(ledger[msg.sender] >= totalTransactionAmount, \"Your wallet does not have the funds for this transaction\") */\n      tag_73\n      jumpi\n      mload(0x40)\n      0x08c379a000000000000000000000000000000000000000000000000000000000\n      dup2\n      mstore\n      0x04\n      add\n      tag_74\n      swap1\n      tag_75\n      jump\t// in\n    tag_74:\n      mload(0x40)\n      dup1\n      swap2\n      sub\n      swap1\n      revert\n    tag_73:\n        /* \"contracts/AdamToken.sol\":1462:1484  totalTransactionAmount */\n      dup1\n        /* \"contracts/AdamToken.sol\":1440:1446  ledger */\n      0x02\n        /* \"contracts/AdamToken.sol\":1440:1458  ledger[msg.sender] */\n      0x00\n        /* \"contracts/AdamToken.sol\":1447:1457  msg.sender */\n      caller\n        /* \"contracts/AdamToken.sol\":1440:1458  ledger[msg.sender] */\n      0xffffffffffffffffffffffffffffffffffffffff\n      and\n      0xffffffffffffffffffffffffffffffffffffffff\n      and\n      dup2\n      mstore\n      0x20\n      add\n      swap1\n      dup2\n      mstore\n      0x20\n      add\n      0x00\n      keccak256\n      0x00\n        /* \"contracts/AdamToken.sol\":1440:1484  ledger[msg.sender] -= totalTransactionAmount */\n      dup3\n      dup3\n      sload\n      tag_76\n      swap2\n      swap1\n      tag_77\n      jump\t// in\n    tag_76:\n      swap3\n      pop\n      pop\n      dup2\n      swap1\n      sstore\n      pop\n        /* \"contracts/AdamToken.sol\":1578:1592  transactionFee */\n      dup2\n        /* \"contracts/AdamToken.sol\":1553:1559  ledger */\n      0x02\n        /* \"contracts/AdamToken.sol\":1553:1574  ledger[address(this)] */\n      0x00\n        /* \"contracts/AdamToken.sol\":1568:1572  this */\n      address\n        /* \"contracts/AdamToken.sol\":1553:1574  ledger[address(this)] */\n      0xffffffffffffffffffffffffffffffffffffffff\n      and\n      0xffffffffffffffffffffffffffffffffffffffff\n      and\n      dup2\n      mstore\n      0x20\n      add\n      swap1\n      dup2\n      mstore\n      0x20\n      add\n      0x00\n      keccak256\n      0x00\n        /* \"contracts/AdamToken.sol\":1553:1592  ledger[address(this)] += transactionFee */\n      dup3\n      dup3\n      sload\n      tag_78\n      swap2\n      swap1\n      tag_68\n      jump\t// in\n    tag_78:\n      swap3\n      pop\n      pop\n      dup2\n      swap1\n      sstore\n      pop\n        /* \"contracts/AdamToken.sol\":1627:1633  amount */\n      dup3\n        /* \"contracts/AdamToken.sol\":1602:1608  ledger */\n      0x02\n        /* \"contracts/AdamToken.sol\":1602:1623  ledger[walletAddress] */\n      0x00\n        /* \"contracts/AdamToken.sol\":1609:1622  walletAddress */\n      dup7\n        /* \"contracts/AdamToken.sol\":1602:1623  ledger[walletAddress] */\n      0xffffffffffffffffffffffffffffffffffffffff\n      and\n      0xffffffffffffffffffffffffffffffffffffffff\n      and\n      dup2\n      mstore\n      0x20\n      add\n      swap1\n      dup2\n      mstore\n      0x20\n      add\n      0x00\n      keccak256\n      0x00\n        /* \"contracts/AdamToken.sol\":1602:1633  ledger[walletAddress] += amount */\n      dup3\n      dup3\n      sload\n      tag_79\n      swap2\n      swap1\n      tag_68\n      jump\t// in\n    tag_79:\n      swap3\n      pop\n      pop\n      dup2\n      swap1\n      sstore\n      pop\n        /* \"contracts/AdamToken.sol\":831:1640  {... */\n      pop\n      pop\n        /* \"contracts/AdamToken.sol\":760:1640  function transfer(address walletAddress, uint256 amount) public payable{... */\n      pop\n      pop\n      jump\t// out\n        /* \"contracts/AdamToken.sol\":1719:1882  function tokenAmount(address walletAddress) public view returns (uint256){... */\n    tag_43:\n        /* \"contracts/AdamToken.sol\":1784:1791  uint256 */\n      0x00\n        /* \"contracts/AdamToken.sol\":1802:1822  uint256 walletAmount */\n      dup1\n        /* \"contracts/AdamToken.sol\":1825:1831  ledger */\n      0x02\n        /* \"contracts/AdamToken.sol\":1825:1846  ledger[walletAddress] */\n      0x00\n        /* \"contracts/AdamToken.sol\":1832:1845  walletAddress */\n      dup5\n        /* \"contracts/AdamToken.sol\":1825:1846  ledger[walletAddress] */\n      0xffffffffffffffffffffffffffffffffffffffff\n      and\n      0xffffffffffffffffffffffffffffffffffffffff\n      and\n      dup2\n      mstore\n      0x20\n      add\n      swap1\n      dup2\n      mstore\n      0x20\n      add\n      0x00\n      keccak256\n      sload\n        /* \"contracts/AdamToken.sol\":1802:1846  uint256 walletAmount = ledger[walletAddress] */\n      swap1\n      pop\n        /* \"contracts/AdamToken.sol\":1863:1875  walletAmount */\n      dup1\n        /* \"contracts/AdamToken.sol\":1856:1875  return walletAmount */\n      swap2\n      pop\n      pop\n        /* \"contracts/AdamToken.sol\":1719:1882  function tokenAmount(address walletAddress) public view returns (uint256){... */\n      swap2\n      swap1\n      pop\n      jump\t// out\n        /* \"contracts/AdamToken.sol\":519:754  function faucet(address walletAddress) public{... */\n    tag_48:\n        /* \"contracts/AdamToken.sol\":613:617  true */\n      0x01\n        /* \"contracts/AdamToken.sol\":582:617  receivedCoin[walletAddress] != true */\n      iszero\n      iszero\n        /* \"contracts/AdamToken.sol\":582:594  receivedCoin */\n      0x03\n        /* \"contracts/AdamToken.sol\":582:609  receivedCoin[walletAddress] */\n      0x00\n        /* \"contracts/AdamToken.sol\":595:608  walletAddress */\n      dup4\n        /* \"contracts/AdamToken.sol\":582:609  receivedCoin[walletAddress] */\n      0xffffffffffffffffffffffffffffffffffffffff\n      and\n      0xffffffffffffffffffffffffffffffffffffffff\n      and\n      dup2\n      mstore\n      0x20\n      add\n      swap1\n      dup2\n      mstore\n      0x20\n      add\n      0x00\n      keccak256\n      0x00\n      swap1\n      sload\n      swap1\n      0x0100\n      exp\n      swap1\n      div\n      0xff\n      and\n        /* \"contracts/AdamToken.sol\":582:617  receivedCoin[walletAddress] != true */\n      iszero\n      iszero\n      sub\n        /* \"contracts/AdamToken.sol\":574:656  require(receivedCoin[walletAddress] != true, \"Your wallet already received funds\") */\n      tag_82\n      jumpi\n      mload(0x40)\n      0x08c379a000000000000000000000000000000000000000000000000000000000\n      dup2\n      mstore\n      0x04\n      add\n      tag_83\n      swap1\n      tag_84\n      jump\t// in\n    tag_83:\n      mload(0x40)\n      dup1\n      swap2\n      sub\n      swap1\n      revert\n    tag_82:\n        /* \"contracts/AdamToken.sol\":688:700  faucetAmount */\n      sload(0x01)\n        /* \"contracts/AdamToken.sol\":666:684  initialTokenSupply */\n      0x00\n      dup1\n        /* \"contracts/AdamToken.sol\":666:700  initialTokenSupply -= faucetAmount */\n      dup3\n      dup3\n      sload\n      tag_85\n      swap2\n      swap1\n      tag_77\n      jump\t// in\n    tag_85:\n      swap3\n      pop\n      pop\n      dup2\n      swap1\n      sstore\n      pop\n        /* \"contracts/AdamToken.sol\":735:747  faucetAmount */\n      sload(0x01)\n        /* \"contracts/AdamToken.sol\":710:716  ledger */\n      0x02\n        /* \"contracts/AdamToken.sol\":710:731  ledger[walletAddress] */\n      0x00\n        /* \"contracts/AdamToken.sol\":717:730  walletAddress */\n      dup4\n        /* \"contracts/AdamToken.sol\":710:731  ledger[walletAddress] */\n      0xffffffffffffffffffffffffffffffffffffffff\n      and\n      0xffffffffffffffffffffffffffffffffffffffff\n      and\n      dup2\n      mstore\n      0x20\n      add\n      swap1\n      dup2\n      mstore\n      0x20\n      add\n      0x00\n      keccak256\n      0x00\n        /* \"contracts/AdamToken.sol\":710:747  ledger[walletAddress] += faucetAmount */\n      dup3\n      dup3\n      sload\n      tag_86\n      swap2\n      swap1\n      tag_68\n      jump\t// in\n    tag_86:\n      swap3\n      pop\n      pop\n      dup2\n      swap1\n      sstore\n      pop\n        /* \"contracts/AdamToken.sol\":519:754  function faucet(address walletAddress) public{... */\n      pop\n      jump\t// out\n        /* \"contracts/AdamToken.sol\":81:124  uint256 public initialTokenSupply = 1000000 */\n    tag_51:\n      sload(0x00)\n      dup2\n      jump\t// out\n        /* \"contracts/AdamToken.sol\":258:299  mapping(address => uint256) public ledger */\n    tag_56:\n      mstore(0x20, 0x02)\n      dup1\n      0x00\n      mstore\n      keccak256(0x00, 0x40)\n      0x00\n      swap2\n      pop\n      swap1\n      pop\n      sload\n      dup2\n      jump\t// out\n        /* \"#utility.yul\":7:84   */\n    tag_87:\n        /* \"#utility.yul\":44:51   */\n      0x00\n        /* \"#utility.yul\":73:78   */\n      dup2\n        /* \"#utility.yul\":62:78   */\n      swap1\n      pop\n        /* \"#utility.yul\":7:84   */\n      swap2\n      swap1\n      pop\n      jump\t// out\n        /* \"#utility.yul\":90:208   */\n    tag_88:\n        /* \"#utility.yul\":177:201   */\n      tag_113\n        /* \"#utility.yul\":195:200   */\n      dup2\n        /* \"#utility.yul\":177:201   */\n      tag_87\n      jump\t// in\n    tag_113:\n        /* \"#utility.yul\":172:175   */\n      dup3\n        /* \"#utility.yul\":165:202   */\n      mstore\n        /* \"#utility.yul\":90:208   */\n      pop\n      pop\n      jump\t// out\n        /* \"#utility.yul\":214:436   */\n    tag_20:\n        /* \"#utility.yul\":307:311   */\n      0x00\n        /* \"#utility.yul\":345:347   */\n      0x20\n        /* \"#utility.yul\":334:343   */\n      dup3\n        /* \"#utility.yul\":330:348   */\n      add\n        /* \"#utility.yul\":322:348   */\n      swap1\n      pop\n        /* \"#utility.yul\":358:429   */\n      tag_115\n        /* \"#utility.yul\":426:427   */\n      0x00\n        /* \"#utility.yul\":415:424   */\n      dup4\n        /* \"#utility.yul\":411:428   */\n      add\n        /* \"#utility.yul\":402:408   */\n      dup5\n        /* \"#utility.yul\":358:429   */\n      tag_88\n      jump\t// in\n    tag_115:\n        /* \"#utility.yul\":214:436   */\n      swap3\n      swap2\n      pop\n      pop\n      jump\t// out\n        /* \"#utility.yul\":442:568   */\n    tag_89:\n        /* \"#utility.yul\":479:486   */\n      0x00\n        /* \"#utility.yul\":519:561   */\n      0xffffffffffffffffffffffffffffffffffffffff\n        /* \"#utility.yul\":512:517   */\n      dup3\n        /* \"#utility.yul\":508:562   */\n      and\n        /* \"#utility.yul\":497:562   */\n      swap1\n      pop\n        /* \"#utility.yul\":442:568   */\n      swap2\n      swap1\n      pop\n      jump\t// out\n        /* \"#utility.yul\":574:670   */\n    tag_90:\n        /* \"#utility.yul\":611:618   */\n      0x00\n        /* \"#utility.yul\":640:664   */\n      tag_118\n        /* \"#utility.yul\":658:663   */\n      dup3\n        /* \"#utility.yul\":640:664   */\n      tag_89\n      jump\t// in\n    tag_118:\n        /* \"#utility.yul\":629:664   */\n      swap1\n      pop\n        /* \"#utility.yul\":574:670   */\n      swap2\n      swap1\n      pop\n      jump\t// out\n        /* \"#utility.yul\":676:794   */\n    tag_91:\n        /* \"#utility.yul\":763:787   */\n      tag_120\n        /* \"#utility.yul\":781:786   */\n      dup2\n        /* \"#utility.yul\":763:787   */\n      tag_90\n      jump\t// in\n    tag_120:\n        /* \"#utility.yul\":758:761   */\n      dup3\n        /* \"#utility.yul\":751:788   */\n      mstore\n        /* \"#utility.yul\":676:794   */\n      pop\n      pop\n      jump\t// out\n        /* \"#utility.yul\":800:1022   */\n    tag_25:\n        /* \"#utility.yul\":893:897   */\n      0x00\n        /* \"#utility.yul\":931:933   */\n      0x20\n        /* \"#utility.yul\":920:929   */\n      dup3\n        /* \"#utility.yul\":916:934   */\n      add\n        /* \"#utility.yul\":908:934   */\n      swap1\n      pop\n        /* \"#utility.yul\":944:1015   */\n      tag_122\n        /* \"#utility.yul\":1012:1013   */\n      0x00\n        /* \"#utility.yul\":1001:1010   */\n      dup4\n        /* \"#utility.yul\":997:1014   */\n      add\n        /* \"#utility.yul\":988:994   */\n      dup5\n        /* \"#utility.yul\":944:1015   */\n      tag_91\n      jump\t// in\n    tag_122:\n        /* \"#utility.yul\":800:1022   */\n      swap3\n      swap2\n      pop\n      pop\n      jump\t// out\n        /* \"#utility.yul\":1109:1226   */\n    tag_93:\n        /* \"#utility.yul\":1218:1219   */\n      0x00\n        /* \"#utility.yul\":1215:1216   */\n      dup1\n        /* \"#utility.yul\":1208:1220   */\n      revert\n        /* \"#utility.yul\":1355:1477   */\n    tag_95:\n        /* \"#utility.yul\":1428:1452   */\n      tag_127\n        /* \"#utility.yul\":1446:1451   */\n      dup2\n        /* \"#utility.yul\":1428:1452   */\n      tag_90\n      jump\t// in\n    tag_127:\n        /* \"#utility.yul\":1421:1426   */\n      dup2\n        /* \"#utility.yul\":1418:1453   */\n      eq\n        /* \"#utility.yul\":1408:1471   */\n      tag_128\n      jumpi\n        /* \"#utility.yul\":1467:1468   */\n      0x00\n        /* \"#utility.yul\":1464:1465   */\n      dup1\n        /* \"#utility.yul\":1457:1469   */\n      revert\n        /* \"#utility.yul\":1408:1471   */\n    tag_128:\n        /* \"#utility.yul\":1355:1477   */\n      pop\n      jump\t// out\n        /* \"#utility.yul\":1483:1622   */\n    tag_96:\n        /* \"#utility.yul\":1529:1534   */\n      0x00\n        /* \"#utility.yul\":1567:1573   */\n      dup2\n        /* \"#utility.yul\":1554:1574   */\n      calldataload\n        /* \"#utility.yul\":1545:1574   */\n      swap1\n      pop\n        /* \"#utility.yul\":1583:1616   */\n      tag_130\n        /* \"#utility.yul\":1610:1615   */\n      dup2\n        /* \"#utility.yul\":1583:1616   */\n      tag_95\n      jump\t// in\n    tag_130:\n        /* \"#utility.yul\":1483:1622   */\n      swap3\n      swap2\n      pop\n      pop\n      jump\t// out\n        /* \"#utility.yul\":1628:1957   */\n    tag_29:\n        /* \"#utility.yul\":1687:1693   */\n      0x00\n        /* \"#utility.yul\":1736:1738   */\n      0x20\n        /* \"#utility.yul\":1724:1733   */\n      dup3\n        /* \"#utility.yul\":1715:1722   */\n      dup5\n        /* \"#utility.yul\":1711:1734   */\n      sub\n        /* \"#utility.yul\":1707:1739   */\n      slt\n        /* \"#utility.yul\":1704:1823   */\n      iszero\n      tag_132\n      jumpi\n        /* \"#utility.yul\":1742:1821   */\n      tag_133\n      tag_93\n      jump\t// in\n    tag_133:\n        /* \"#utility.yul\":1704:1823   */\n    tag_132:\n        /* \"#utility.yul\":1862:1863   */\n      0x00\n        /* \"#utility.yul\":1887:1940   */\n      tag_134\n        /* \"#utility.yul\":1932:1939   */\n      dup5\n        /* \"#utility.yul\":1923:1929   */\n      dup3\n        /* \"#utility.yul\":1912:1921   */\n      dup6\n        /* \"#utility.yul\":1908:1930   */\n      add\n        /* \"#utility.yul\":1887:1940   */\n      tag_96\n      jump\t// in\n    tag_134:\n        /* \"#utility.yul\":1877:1940   */\n      swap2\n      pop\n        /* \"#utility.yul\":1833:1950   */\n      pop\n        /* \"#utility.yul\":1628:1957   */\n      swap3\n      swap2\n      pop\n      pop\n      jump\t// out\n        /* \"#utility.yul\":1963:2053   */\n    tag_97:\n        /* \"#utility.yul\":1997:2004   */\n      0x00\n        /* \"#utility.yul\":2040:2045   */\n      dup2\n        /* \"#utility.yul\":2033:2046   */\n      iszero\n        /* \"#utility.yul\":2026:2047   */\n      iszero\n        /* \"#utility.yul\":2015:2047   */\n      swap1\n      pop\n        /* \"#utility.yul\":1963:2053   */\n      swap2\n      swap1\n      pop\n      jump\t// out\n        /* \"#utility.yul\":2059:2168   */\n    tag_98:\n        /* \"#utility.yul\":2140:2161   */\n      tag_137\n        /* \"#utility.yul\":2155:2160   */\n      dup2\n        /* \"#utility.yul\":2140:2161   */\n      tag_97\n      jump\t// in\n    tag_137:\n        /* \"#utility.yul\":2135:2138   */\n      dup3\n        /* \"#utility.yul\":2128:2162   */\n      mstore\n        /* \"#utility.yul\":2059:2168   */\n      pop\n      pop\n      jump\t// out\n        /* \"#utility.yul\":2174:2384   */\n    tag_32:\n        /* \"#utility.yul\":2261:2265   */\n      0x00\n        /* \"#utility.yul\":2299:2301   */\n      0x20\n        /* \"#utility.yul\":2288:2297   */\n      dup3\n        /* \"#utility.yul\":2284:2302   */\n      add\n        /* \"#utility.yul\":2276:2302   */\n      swap1\n      pop\n        /* \"#utility.yul\":2312:2377   */\n      tag_139\n        /* \"#utility.yul\":2374:2375   */\n      0x00\n        /* \"#utility.yul\":2363:2372   */\n      dup4\n        /* \"#utility.yul\":2359:2376   */\n      add\n        /* \"#utility.yul\":2350:2356   */\n      dup5\n        /* \"#utility.yul\":2312:2377   */\n      tag_98\n      jump\t// in\n    tag_139:\n        /* \"#utility.yul\":2174:2384   */\n      swap3\n      swap2\n      pop\n      pop\n      jump\t// out\n        /* \"#utility.yul\":2390:2512   */\n    tag_99:\n        /* \"#utility.yul\":2463:2487   */\n      tag_141\n        /* \"#utility.yul\":2481:2486   */\n      dup2\n        /* \"#utility.yul\":2463:2487   */\n      tag_87\n      jump\t// in\n    tag_141:\n        /* \"#utility.yul\":2456:2461   */\n      dup2\n        /* \"#utility.yul\":2453:2488   */\n      eq\n        /* \"#utility.yul\":2443:2506   */\n      tag_142\n      jumpi\n        /* \"#utility.yul\":2502:2503   */\n      0x00\n        /* \"#utility.yul\":2499:2500   */\n      dup1\n        /* \"#utility.yul\":2492:2504   */\n      revert\n        /* \"#utility.yul\":2443:2506   */\n    tag_142:\n        /* \"#utility.yul\":2390:2512   */\n      pop\n      jump\t// out\n        /* \"#utility.yul\":2518:2657   */\n    tag_100:\n        /* \"#utility.yul\":2564:2569   */\n      0x00\n        /* \"#utility.yul\":2602:2608   */\n      dup2\n        /* \"#utility.yul\":2589:2609   */\n      calldataload\n        /* \"#utility.yul\":2580:2609   */\n      swap1\n      pop\n        /* \"#utility.yul\":2618:2651   */\n      tag_144\n        /* \"#utility.yul\":2645:2650   */\n      dup2\n        /* \"#utility.yul\":2618:2651   */\n      tag_99\n      jump\t// in\n    tag_144:\n        /* \"#utility.yul\":2518:2657   */\n      swap3\n      swap2\n      pop\n      pop\n      jump\t// out\n        /* \"#utility.yul\":2663:3137   */\n    tag_38:\n        /* \"#utility.yul\":2731:2737   */\n      0x00\n        /* \"#utility.yul\":2739:2745   */\n      dup1\n        /* \"#utility.yul\":2788:2790   */\n      0x40\n        /* \"#utility.yul\":2776:2785   */\n      dup4\n        /* \"#utility.yul\":2767:2774   */\n      dup6\n        /* \"#utility.yul\":2763:2786   */\n      sub\n        /* \"#utility.yul\":2759:2791   */\n      slt\n        /* \"#utility.yul\":2756:2875   */\n      iszero\n      tag_146\n      jumpi\n        /* \"#utility.yul\":2794:2873   */\n      tag_147\n      tag_93\n      jump\t// in\n    tag_147:\n        /* \"#utility.yul\":2756:2875   */\n    tag_146:\n        /* \"#utility.yul\":2914:2915   */\n      0x00\n        /* \"#utility.yul\":2939:2992   */\n      tag_148\n        /* \"#utility.yul\":2984:2991   */\n      dup6\n        /* \"#utility.yul\":2975:2981   */\n      dup3\n        /* \"#utility.yul\":2964:2973   */\n      dup7\n        /* \"#utility.yul\":2960:2982   */\n      add\n        /* \"#utility.yul\":2939:2992   */\n      tag_96\n      jump\t// in\n    tag_148:\n        /* \"#utility.yul\":2929:2992   */\n      swap3\n      pop\n        /* \"#utility.yul\":2885:3002   */\n      pop\n        /* \"#utility.yul\":3041:3043   */\n      0x20\n        /* \"#utility.yul\":3067:3120   */\n      tag_149\n        /* \"#utility.yul\":3112:3119   */\n      dup6\n        /* \"#utility.yul\":3103:3109   */\n      dup3\n        /* \"#utility.yul\":3092:3101   */\n      dup7\n        /* \"#utility.yul\":3088:3110   */\n      add\n        /* \"#utility.yul\":3067:3120   */\n      tag_100\n      jump\t// in\n    tag_149:\n        /* \"#utility.yul\":3057:3120   */\n      swap2\n      pop\n        /* \"#utility.yul\":3012:3130   */\n      pop\n        /* \"#utility.yul\":2663:3137   */\n      swap3\n      pop\n      swap3\n      swap1\n      pop\n      jump\t// out\n        /* \"#utility.yul\":3143:3312   */\n    tag_101:\n        /* \"#utility.yul\":3227:3238   */\n      0x00\n        /* \"#utility.yul\":3261:3267   */\n      dup3\n        /* \"#utility.yul\":3256:3259   */\n      dup3\n        /* \"#utility.yul\":3249:3268   */\n      mstore\n        /* \"#utility.yul\":3301:3305   */\n      0x20\n        /* \"#utility.yul\":3296:3299   */\n      dup3\n        /* \"#utility.yul\":3292:3306   */\n      add\n        /* \"#utility.yul\":3277:3306   */\n      swap1\n      pop\n        /* \"#utility.yul\":3143:3312   */\n      swap3\n      swap2\n      pop\n      pop\n      jump\t// out\n        /* \"#utility.yul\":3318:3630   */\n    tag_102:\n        /* \"#utility.yul\":3458:3492   */\n      0x596f7520646f206e6f7420686176652061636365737320746f20746869732066\n        /* \"#utility.yul\":3454:3455   */\n      0x00\n        /* \"#utility.yul\":3446:3452   */\n      dup3\n        /* \"#utility.yul\":3442:3456   */\n      add\n        /* \"#utility.yul\":3435:3493   */\n      mstore\n        /* \"#utility.yul\":3527:3561   */\n      0x756e6374696f6e20617320796f7520617265206e6f7420746865206f776e6572\n        /* \"#utility.yul\":3522:3524   */\n      0x20\n        /* \"#utility.yul\":3514:3520   */\n      dup3\n        /* \"#utility.yul\":3510:3525   */\n      add\n        /* \"#utility.yul\":3503:3562   */\n      mstore\n        /* \"#utility.yul\":3596:3622   */\n      0x206f66207468697320736d61727420636f6e74726163742e0000000000000000\n        /* \"#utility.yul\":3591:3593   */\n      0x40\n        /* \"#utility.yul\":3583:3589   */\n      dup3\n        /* \"#utility.yul\":3579:3594   */\n      add\n        /* \"#utility.yul\":3572:3623   */\n      mstore\n        /* \"#utility.yul\":3318:3630   */\n      pop\n      jump\t// out\n        /* \"#utility.yul\":3636:4002   */\n    tag_103:\n        /* \"#utility.yul\":3778:3781   */\n      0x00\n        /* \"#utility.yul\":3799:3866   */\n      tag_153\n        /* \"#utility.yul\":3863:3865   */\n      0x58\n        /* \"#utility.yul\":3858:3861   */\n      dup4\n        /* \"#utility.yul\":3799:3866   */\n      tag_101\n      jump\t// in\n    tag_153:\n        /* \"#utility.yul\":3792:3866   */\n      swap2\n      pop\n        /* \"#utility.yul\":3875:3968   */\n      tag_154\n        /* \"#utility.yul\":3964:3967   */\n      dup3\n        /* \"#utility.yul\":3875:3968   */\n      tag_102\n      jump\t// in\n    tag_154:\n        /* \"#utility.yul\":3993:3995   */\n      0x60\n        /* \"#utility.yul\":3988:3991   */\n      dup3\n        /* \"#utility.yul\":3984:3996   */\n      add\n        /* \"#utility.yul\":3977:3996   */\n      swap1\n      pop\n        /* \"#utility.yul\":3636:4002   */\n      swap2\n      swap1\n      pop\n      jump\t// out\n        /* \"#utility.yul\":4008:4427   */\n    tag_61:\n        /* \"#utility.yul\":4174:4178   */\n      0x00\n        /* \"#utility.yul\":4212:4214   */\n      0x20\n        /* \"#utility.yul\":4201:4210   */\n      dup3\n        /* \"#utility.yul\":4197:4215   */\n      add\n        /* \"#utility.yul\":4189:4215   */\n      swap1\n      pop\n        /* \"#utility.yul\":4261:4270   */\n      dup2\n        /* \"#utility.yul\":4255:4259   */\n      dup2\n        /* \"#utility.yul\":4251:4271   */\n      sub\n        /* \"#utility.yul\":4247:4248   */\n      0x00\n        /* \"#utility.yul\":4236:4245   */\n      dup4\n        /* \"#utility.yul\":4232:4249   */\n      add\n        /* \"#utility.yul\":4225:4272   */\n      mstore\n        /* \"#utility.yul\":4289:4420   */\n      tag_156\n        /* \"#utility.yul\":4415:4419   */\n      dup2\n        /* \"#utility.yul\":4289:4420   */\n      tag_103\n      jump\t// in\n    tag_156:\n        /* \"#utility.yul\":4281:4420   */\n      swap1\n      pop\n        /* \"#utility.yul\":4008:4427   */\n      swap2\n      swap1\n      pop\n      jump\t// out\n        /* \"#utility.yul\":4433:4613   */\n    tag_104:\n        /* \"#utility.yul\":4481:4558   */\n      0x4e487b7100000000000000000000000000000000000000000000000000000000\n        /* \"#utility.yul\":4478:4479   */\n      0x00\n        /* \"#utility.yul\":4471:4559   */\n      mstore\n        /* \"#utility.yul\":4578:4582   */\n      0x11\n        /* \"#utility.yul\":4575:4576   */\n      0x04\n        /* \"#utility.yul\":4568:4583   */\n      mstore\n        /* \"#utility.yul\":4602:4606   */\n      0x24\n        /* \"#utility.yul\":4599:4600   */\n      0x00\n        /* \"#utility.yul\":4592:4607   */\n      revert\n        /* \"#utility.yul\":4619:4810   */\n    tag_68:\n        /* \"#utility.yul\":4659:4662   */\n      0x00\n        /* \"#utility.yul\":4678:4698   */\n      tag_159\n        /* \"#utility.yul\":4696:4697   */\n      dup3\n        /* \"#utility.yul\":4678:4698   */\n      tag_87\n      jump\t// in\n    tag_159:\n        /* \"#utility.yul\":4673:4698   */\n      swap2\n      pop\n        /* \"#utility.yul\":4712:4732   */\n      tag_160\n        /* \"#utility.yul\":4730:4731   */\n      dup4\n        /* \"#utility.yul\":4712:4732   */\n      tag_87\n      jump\t// in\n    tag_160:\n        /* \"#utility.yul\":4707:4732   */\n      swap3\n      pop\n        /* \"#utility.yul\":4755:4756   */\n      dup3\n        /* \"#utility.yul\":4752:4753   */\n      dup3\n        /* \"#utility.yul\":4748:4757   */\n      add\n        /* \"#utility.yul\":4741:4757   */\n      swap1\n      pop\n        /* \"#utility.yul\":4776:4779   */\n      dup1\n        /* \"#utility.yul\":4773:4774   */\n      dup3\n        /* \"#utility.yul\":4770:4780   */\n      gt\n        /* \"#utility.yul\":4767:4803   */\n      iszero\n      tag_161\n      jumpi\n        /* \"#utility.yul\":4783:4801   */\n      tag_162\n      tag_104\n      jump\t// in\n    tag_162:\n        /* \"#utility.yul\":4767:4803   */\n    tag_161:\n        /* \"#utility.yul\":4619:4810   */\n      swap3\n      swap2\n      pop\n      pop\n      jump\t// out\n        /* \"#utility.yul\":4816:4996   */\n    tag_105:\n        /* \"#utility.yul\":4864:4941   */\n      0x4e487b7100000000000000000000000000000000000000000000000000000000\n        /* \"#utility.yul\":4861:4862   */\n      0x00\n        /* \"#utility.yul\":4854:4942   */\n      mstore\n        /* \"#utility.yul\":4961:4965   */\n      0x12\n        /* \"#utility.yul\":4958:4959   */\n      0x04\n        /* \"#utility.yul\":4951:4966   */\n      mstore\n        /* \"#utility.yul\":4985:4989   */\n      0x24\n        /* \"#utility.yul\":4982:4983   */\n      0x00\n        /* \"#utility.yul\":4975:4990   */\n      revert\n        /* \"#utility.yul\":5002:5187   */\n    tag_71:\n        /* \"#utility.yul\":5042:5043   */\n      0x00\n        /* \"#utility.yul\":5059:5079   */\n      tag_165\n        /* \"#utility.yul\":5077:5078   */\n      dup3\n        /* \"#utility.yul\":5059:5079   */\n      tag_87\n      jump\t// in\n    tag_165:\n        /* \"#utility.yul\":5054:5079   */\n      swap2\n      pop\n        /* \"#utility.yul\":5093:5113   */\n      tag_166\n        /* \"#utility.yul\":5111:5112   */\n      dup4\n        /* \"#utility.yul\":5093:5113   */\n      tag_87\n      jump\t// in\n    tag_166:\n        /* \"#utility.yul\":5088:5113   */\n      swap3\n      pop\n        /* \"#utility.yul\":5132:5133   */\n      dup3\n        /* \"#utility.yul\":5122:5157   */\n      tag_167\n      jumpi\n        /* \"#utility.yul\":5137:5155   */\n      tag_168\n      tag_105\n      jump\t// in\n    tag_168:\n        /* \"#utility.yul\":5122:5157   */\n    tag_167:\n        /* \"#utility.yul\":5179:5180   */\n      dup3\n        /* \"#utility.yul\":5176:5177   */\n      dup3\n        /* \"#utility.yul\":5172:5181   */\n      div\n        /* \"#utility.yul\":5167:5181   */\n      swap1\n      pop\n        /* \"#utility.yul\":5002:5187   */\n      swap3\n      swap2\n      pop\n      pop\n      jump\t// out\n        /* \"#utility.yul\":5193:5436   */\n    tag_106:\n        /* \"#utility.yul\":5333:5367   */\n      0x596f75722077616c6c657420646f6573206e6f74206861766520746865206675\n        /* \"#utility.yul\":5329:5330   */\n      0x00\n        /* \"#utility.yul\":5321:5327   */\n      dup3\n        /* \"#utility.yul\":5317:5331   */\n      add\n        /* \"#utility.yul\":5310:5368   */\n      mstore\n        /* \"#utility.yul\":5402:5428   */\n      0x6e647320666f722074686973207472616e73616374696f6e0000000000000000\n        /* \"#utility.yul\":5397:5399   */\n      0x20\n        /* \"#utility.yul\":5389:5395   */\n      dup3\n        /* \"#utility.yul\":5385:5400   */\n      add\n        /* \"#utility.yul\":5378:5429   */\n      mstore\n        /* \"#utility.yul\":5193:5436   */\n      pop\n      jump\t// out\n        /* \"#utility.yul\":5442:5808   */\n    tag_107:\n        /* \"#utility.yul\":5584:5587   */\n      0x00\n        /* \"#utility.yul\":5605:5672   */\n      tag_171\n        /* \"#utility.yul\":5669:5671   */\n      0x38\n        /* \"#utility.yul\":5664:5667   */\n      dup4\n        /* \"#utility.yul\":5605:5672   */\n      tag_101\n      jump\t// in\n    tag_171:\n        /* \"#utility.yul\":5598:5672   */\n      swap2\n      pop\n        /* \"#utility.yul\":5681:5774   */\n      tag_172\n        /* \"#utility.yul\":5770:5773   */\n      dup3\n        /* \"#utility.yul\":5681:5774   */\n      tag_106\n      jump\t// in\n    tag_172:\n        /* \"#utility.yul\":5799:5801   */\n      0x40\n        /* \"#utility.yul\":5794:5797   */\n      dup3\n        /* \"#utility.yul\":5790:5802   */\n      add\n        /* \"#utility.yul\":5783:5802   */\n      swap1\n      pop\n        /* \"#utility.yul\":5442:5808   */\n      swap2\n      swap1\n      pop\n      jump\t// out\n        /* \"#utility.yul\":5814:6233   */\n    tag_75:\n        /* \"#utility.yul\":5980:5984   */\n      0x00\n        /* \"#utility.yul\":6018:6020   */\n      0x20\n        /* \"#utility.yul\":6007:6016   */\n      dup3\n        /* \"#utility.yul\":6003:6021   */\n      add\n        /* \"#utility.yul\":5995:6021   */\n      swap1\n      pop\n        /* \"#utility.yul\":6067:6076   */\n      dup2\n        /* \"#utility.yul\":6061:6065   */\n      dup2\n        /* \"#utility.yul\":6057:6077   */\n      sub\n        /* \"#utility.yul\":6053:6054   */\n      0x00\n        /* \"#utility.yul\":6042:6051   */\n      dup4\n        /* \"#utility.yul\":6038:6055   */\n      add\n        /* \"#utility.yul\":6031:6078   */\n      mstore\n        /* \"#utility.yul\":6095:6226   */\n      tag_174\n        /* \"#utility.yul\":6221:6225   */\n      dup2\n        /* \"#utility.yul\":6095:6226   */\n      tag_107\n      jump\t// in\n    tag_174:\n        /* \"#utility.yul\":6087:6226   */\n      swap1\n      pop\n        /* \"#utility.yul\":5814:6233   */\n      swap2\n      swap1\n      pop\n      jump\t// out\n        /* \"#utility.yul\":6239:6433   */\n    tag_77:\n        /* \"#utility.yul\":6279:6283   */\n      0x00\n        /* \"#utility.yul\":6299:6319   */\n      tag_176\n        /* \"#utility.yul\":6317:6318   */\n      dup3\n        /* \"#utility.yul\":6299:6319   */\n      tag_87\n      jump\t// in\n    tag_176:\n        /* \"#utility.yul\":6294:6319   */\n      swap2\n      pop\n        /* \"#utility.yul\":6333:6353   */\n      tag_177\n        /* \"#utility.yul\":6351:6352   */\n      dup4\n        /* \"#utility.yul\":6333:6353   */\n      tag_87\n      jump\t// in\n    tag_177:\n        /* \"#utility.yul\":6328:6353   */\n      swap3\n      pop\n        /* \"#utility.yul\":6377:6378   */\n      dup3\n        /* \"#utility.yul\":6374:6375   */\n      dup3\n        /* \"#utility.yul\":6370:6379   */\n      sub\n        /* \"#utility.yul\":6362:6379   */\n      swap1\n      pop\n        /* \"#utility.yul\":6401:6402   */\n      dup2\n        /* \"#utility.yul\":6395:6399   */\n      dup2\n        /* \"#utility.yul\":6392:6403   */\n      gt\n        /* \"#utility.yul\":6389:6426   */\n      iszero\n      tag_178\n      jumpi\n        /* \"#utility.yul\":6406:6424   */\n      tag_179\n      tag_104\n      jump\t// in\n    tag_179:\n        /* \"#utility.yul\":6389:6426   */\n    tag_178:\n        /* \"#utility.yul\":6239:6433   */\n      swap3\n      swap2\n      pop\n      pop\n      jump\t// out\n        /* \"#utility.yul\":6439:6660   */\n    tag_108:\n        /* \"#utility.yul\":6579:6613   */\n      0x596f75722077616c6c657420616c72656164792072656365697665642066756e\n        /* \"#utility.yul\":6575:6576   */\n      0x00\n        /* \"#utility.yul\":6567:6573   */\n      dup3\n        /* \"#utility.yul\":6563:6577   */\n      add\n        /* \"#utility.yul\":6556:6614   */\n      mstore\n        /* \"#utility.yul\":6648:6652   */\n      0x6473000000000000000000000000000000000000000000000000000000000000\n        /* \"#utility.yul\":6643:6645   */\n      0x20\n        /* \"#utility.yul\":6635:6641   */\n      dup3\n        /* \"#utility.yul\":6631:6646   */\n      add\n        /* \"#utility.yul\":6624:6653   */\n      mstore\n        /* \"#utility.yul\":6439:6660   */\n      pop\n      jump\t// out\n        /* \"#utility.yul\":6666:7032   */\n    tag_109:\n        /* \"#utility.yul\":6808:6811   */\n      0x00\n        /* \"#utility.yul\":6829:6896   */\n      tag_182\n        /* \"#utility.yul\":6893:6895   */\n      0x22\n        /* \"#utility.yul\":6888:6891   */\n      dup4\n        /* \"#utility.yul\":6829:6896   */\n      tag_101\n      jump\t// in\n    tag_182:\n        /* \"#utility.yul\":6822:6896   */\n      swap2\n      pop\n        /* \"#utility.yul\":6905:6998   */\n      tag_183\n        /* \"#utility.yul\":6994:6997   */\n      dup3\n        /* \"#utility.yul\":6905:6998   */\n      tag_108\n      jump\t// in\n    tag_183:\n        /* \"#utility.yul\":7023:7025   */\n      0x40\n        /* \"#utility.yul\":7018:7021   */\n      dup3\n        /* \"#utility.yul\":7014:7026   */\n      add\n        /* \"#utility.yul\":7007:7026   */\n      swap1\n      pop\n        /* \"#utility.yul\":6666:7032   */\n      swap2\n      swap1\n      pop\n      jump\t// out\n        /* \"#utility.yul\":7038:7457   */\n    tag_84:\n        /* \"#utility.yul\":7204:7208   */\n      0x00\n        /* \"#utility.yul\":7242:7244   */\n      0x20\n        /* \"#utility.yul\":7231:7240   */\n      dup3\n        /* \"#utility.yul\":7227:7245   */\n      add\n        /* \"#utility.yul\":7219:7245   */\n      swap1\n      pop\n        /* \"#utility.yul\":7291:7300   */\n      dup2\n        /* \"#utility.yul\":7285:7289   */\n      dup2\n        /* \"#utility.yul\":7281:7301   */\n      sub\n        /* \"#utility.yul\":7277:7278   */\n      0x00\n        /* \"#utility.yul\":7266:7275   */\n      dup4\n        /* \"#utility.yul\":7262:7279   */\n      add\n        /* \"#utility.yul\":7255:7302   */\n      mstore\n        /* \"#utility.yul\":7319:7450   */\n      tag_185\n        /* \"#utility.yul\":7445:7449   */\n      dup2\n        /* \"#utility.yul\":7319:7450   */\n      tag_109\n      jump\t// in\n    tag_185:\n        /* \"#utility.yul\":7311:7450   */\n      swap1\n      pop\n        /* \"#utility.yul\":7038:7457   */\n      swap2\n      swap1\n      pop\n      jump\t// out\n\n    auxdata: 0xa2646970667358221220d0f37187d9498ec42a0450b6ed0d3a814087e4169e3137676a3e7912c34aae9864736f6c63430008120033\n}\n",
				"bytecode": {
					"linkReferences": {},
					"object": "60a0604052620f424060005561271060015534801561001d57600080fd5b503373ffffffffffffffffffffffffffffffffffffffff1660808173ffffffffffffffffffffffffffffffffffffffff1681525050608051610c5461007b600039600081816102430152818161031d01526103610152610c546000f3fe6080604052600436106100915760003560e01c8063a9059cbb11610059578063a9059cbb14610157578063a96b7f0514610173578063b86d1d63146101b0578063eb13a7d2146101d9578063fbfa941f1461020457610091565b806308003f78146100965780630c8f5e00146100ad5780638da5cb5b146100d85780638ee17775146101035780639101150e14610140575b600080fd5b3480156100a257600080fd5b506100ab610241565b005b3480156100b957600080fd5b506100c2610316565b6040516100cf91906107c3565b60405180910390f35b3480156100e457600080fd5b506100ed61031b565b6040516100fa919061081f565b60405180910390f35b34801561010f57600080fd5b5061012a6004803603810190610125919061086b565b61033f565b60405161013791906108b3565b60405180910390f35b34801561014c57600080fd5b5061015561035f565b005b610171600480360381019061016c91906108fa565b61048b565b005b34801561017f57600080fd5b5061019a6004803603810190610195919061086b565b610636565b6040516101a791906107c3565b60405180910390f35b3480156101bc57600080fd5b506101d760048036038101906101d2919061086b565b610684565b005b3480156101e557600080fd5b506101ee61078c565b6040516101fb91906107c3565b60405180910390f35b34801561021057600080fd5b5061022b6004803603810190610226919061086b565b610792565b60405161023891906107c3565b60405180910390f35b7f000000000000000000000000000000000000000000000000000000000000000073ffffffffffffffffffffffffffffffffffffffff163373ffffffffffffffffffffffffffffffffffffffff16146102cf576040517f08c379a00000000000000000000000000000000000000000000000000000000081526004016102c6906109e3565b60405180910390fd5b6000600260003073ffffffffffffffffffffffffffffffffffffffff1673ffffffffffffffffffffffffffffffffffffffff16815260200190815260200160002081905550565b600181565b7f000000000000000000000000000000000000000000000000000000000000000081565b60036020528060005260406000206000915054906101000a900460ff1681565b7f000000000000000000000000000000000000000000000000000000000000000073ffffffffffffffffffffffffffffffffffffffff163373ffffffffffffffffffffffffffffffffffffffff16146103ed576040517f08c379a00000000000000000000000000000000000000000000000000000000081526004016103e4906109e3565b60405180910390fd5b600260003073ffffffffffffffffffffffffffffffffffffffff1673ffffffffffffffffffffffffffffffffffffffff1681526020019081526020016000205460008082825461043d9190610a32565b925050819055506000600260003073ffffffffffffffffffffffffffffffffffffffff1673ffffffffffffffffffffffffffffffffffffffff16815260200190815260200160002081905550565b600060648261049a9190610a95565b9050600081836104aa9190610a32565b905080600260003373ffffffffffffffffffffffffffffffffffffffff1673ffffffffffffffffffffffffffffffffffffffff16815260200190815260200160002054101561052e576040517f08c379a000000000000000000000000000000000000000000000000000000000815260040161052590610b38565b60405180910390fd5b80600260003373ffffffffffffffffffffffffffffffffffffffff1673ffffffffffffffffffffffffffffffffffffffff168152602001908152602001600020600082825461057d9190610b58565b9250508190555081600260003073ffffffffffffffffffffffffffffffffffffffff1673ffffffffffffffffffffffffffffffffffffffff16815260200190815260200160002060008282546105d39190610a32565b9250508190555082600260008673ffffffffffffffffffffffffffffffffffffffff1673ffffffffffffffffffffffffffffffffffffffff16815260200190815260200160002060008282546106299190610a32565b9250508190555050505050565b600080600260008473ffffffffffffffffffffffffffffffffffffffff1673ffffffffffffffffffffffffffffffffffffffff16815260200190815260200160002054905080915050919050565b60011515600360008373ffffffffffffffffffffffffffffffffffffffff1673ffffffffffffffffffffffffffffffffffffffff16815260200190815260200160002060009054906101000a900460ff16151503610717576040517f08c379a000000000000000000000000000000000000000000000000000000000815260040161070e90610bfe565b60405180910390fd5b60015460008082825461072a9190610b58565b92505081905550600154600260008373ffffffffffffffffffffffffffffffffffffffff1673ffffffffffffffffffffffffffffffffffffffff16815260200190815260200160002060008282546107829190610a32565b9250508190555050565b60005481565b60026020528060005260406000206000915090505481565b6000819050919050565b6107bd816107aa565b82525050565b60006020820190506107d860008301846107b4565b92915050565b600073ffffffffffffffffffffffffffffffffffffffff82169050919050565b6000610809826107de565b9050919050565b610819816107fe565b82525050565b60006020820190506108346000830184610810565b92915050565b600080fd5b610848816107fe565b811461085357600080fd5b50565b6000813590506108658161083f565b92915050565b6000602082840312156108815761088061083a565b5b600061088f84828501610856565b91505092915050565b60008115159050919050565b6108ad81610898565b82525050565b60006020820190506108c860008301846108a4565b92915050565b6108d7816107aa565b81146108e257600080fd5b50565b6000813590506108f4816108ce565b92915050565b600080604083850312156109115761091061083a565b5b600061091f85828601610856565b9250506020610930858286016108e5565b9150509250929050565b600082825260208201905092915050565b7f596f7520646f206e6f7420686176652061636365737320746f2074686973206660008201527f756e6374696f6e20617320796f7520617265206e6f7420746865206f776e657260208201527f206f66207468697320736d61727420636f6e74726163742e0000000000000000604082015250565b60006109cd60588361093a565b91506109d88261094b565b606082019050919050565b600060208201905081810360008301526109fc816109c0565b9050919050565b7f4e487b7100000000000000000000000000000000000000000000000000000000600052601160045260246000fd5b6000610a3d826107aa565b9150610a48836107aa565b9250828201905080821115610a6057610a5f610a03565b5b92915050565b7f4e487b7100000000000000000000000000000000000000000000000000000000600052601260045260246000fd5b6000610aa0826107aa565b9150610aab836107aa565b925082610abb57610aba610a66565b5b828204905092915050565b7f596f75722077616c6c657420646f6573206e6f7420686176652074686520667560008201527f6e647320666f722074686973207472616e73616374696f6e0000000000000000602082015250565b6000610b2260388361093a565b9150610b2d82610ac6565b604082019050919050565b60006020820190508181036000830152610b5181610b15565b9050919050565b6000610b63826107aa565b9150610b6e836107aa565b9250828203905081811115610b8657610b85610a03565b5b92915050565b7f596f75722077616c6c657420616c72656164792072656365697665642066756e60008201527f6473000000000000000000000000000000000000000000000000000000000000602082015250565b6000610be860228361093a565b9150610bf382610b8c565b604082019050919050565b60006020820190508181036000830152610c1781610bdb565b905091905056fea2646970667358221220d0f37187d9498ec42a0450b6ed0d3a814087e4169e3137676a3e7912c34aae9864736f6c63430008120033",
					"opcodes": "PUSH1 0xA0 PUSH1 0x40 MSTORE PUSH3 0xF4240 PUSH1 0x0 SSTORE PUSH2 0x2710 PUSH1 0x1 SSTORE CALLVALUE DUP1 ISZERO PUSH2 0x1D JUMPI PUSH1 0x0 DUP1 REVERT JUMPDEST POP CALLER PUSH20 0xFFFFFFFFFFFFFFFFFFFFFFFFFFFFFFFFFFFFFFFF AND PUSH1 0x80 DUP2 PUSH20 0xFFFFFFFFFFFFFFFFFFFFFFFFFFFFFFFFFFFFFFFF AND DUP2 MSTORE POP POP PUSH1 0x80 MLOAD PUSH2 0xC54 PUSH2 0x7B PUSH1 0x0 CODECOPY PUSH1 0x0 DUP2 DUP2 PUSH2 0x243 ADD MSTORE DUP2 DUP2 PUSH2 0x31D ADD MSTORE PUSH2 0x361 ADD MSTORE PUSH2 0xC54 PUSH1 0x0 RETURN INVALID PUSH1 0x80 PUSH1 0x40 MSTORE PUSH1 0x4 CALLDATASIZE LT PUSH2 0x91 JUMPI PUSH1 0x0 CALLDATALOAD PUSH1 0xE0 SHR DUP1 PUSH4 0xA9059CBB GT PUSH2 0x59 JUMPI DUP1 PUSH4 0xA9059CBB EQ PUSH2 0x157 JUMPI DUP1 PUSH4 0xA96B7F05 EQ PUSH2 0x173 JUMPI DUP1 PUSH4 0xB86D1D63 EQ PUSH2 0x1B0 JUMPI DUP1 PUSH4 0xEB13A7D2 EQ PUSH2 0x1D9 JUMPI DUP1 PUSH4 0xFBFA941F EQ PUSH2 0x204 JUMPI PUSH2 0x91 JUMP JUMPDEST DUP1 PUSH4 0x8003F78 EQ PUSH2 0x96 JUMPI DUP1 PUSH4 0xC8F5E00 EQ PUSH2 0xAD JUMPI DUP1 PUSH4 0x8DA5CB5B EQ PUSH2 0xD8 JUMPI DUP1 PUSH4 0x8EE17775 EQ PUSH2 0x103 JUMPI DUP1 PUSH4 0x9101150E EQ PUSH2 0x140 JUMPI JUMPDEST PUSH1 0x0 DUP1 REVERT JUMPDEST CALLVALUE DUP1 ISZERO PUSH2 0xA2 JUMPI PUSH1 0x0 DUP1 REVERT JUMPDEST POP PUSH2 0xAB PUSH2 0x241 JUMP JUMPDEST STOP JUMPDEST CALLVALUE DUP1 ISZERO PUSH2 0xB9 JUMPI PUSH1 0x0 DUP1 REVERT JUMPDEST POP PUSH2 0xC2 PUSH2 0x316 JUMP JUMPDEST PUSH1 0x40 MLOAD PUSH2 0xCF SWAP2 SWAP1 PUSH2 0x7C3 JUMP JUMPDEST PUSH1 0x40 MLOAD DUP1 SWAP2 SUB SWAP1 RETURN JUMPDEST CALLVALUE DUP1 ISZERO PUSH2 0xE4 JUMPI PUSH1 0x0 DUP1 REVERT JUMPDEST POP PUSH2 0xED PUSH2 0x31B JUMP JUMPDEST PUSH1 0x40 MLOAD PUSH2 0xFA SWAP2 SWAP1 PUSH2 0x81F JUMP JUMPDEST PUSH1 0x40 MLOAD DUP1 SWAP2 SUB SWAP1 RETURN JUMPDEST CALLVALUE DUP1 ISZERO PUSH2 0x10F JUMPI PUSH1 0x0 DUP1 REVERT JUMPDEST POP PUSH2 0x12A PUSH1 0x4 DUP1 CALLDATASIZE SUB DUP2 ADD SWAP1 PUSH2 0x125 SWAP2 SWAP1 PUSH2 0x86B JUMP JUMPDEST PUSH2 0x33F JUMP JUMPDEST PUSH1 0x40 MLOAD PUSH2 0x137 SWAP2 SWAP1 PUSH2 0x8B3 JUMP JUMPDEST PUSH1 0x40 MLOAD DUP1 SWAP2 SUB SWAP1 RETURN JUMPDEST CALLVALUE DUP1 ISZERO PUSH2 0x14C JUMPI PUSH1 0x0 DUP1 REVERT JUMPDEST POP PUSH2 0x155 PUSH2 0x35F JUMP JUMPDEST STOP JUMPDEST PUSH2 0x171 PUSH1 0x4 DUP1 CALLDATASIZE SUB DUP2 ADD SWAP1 PUSH2 0x16C SWAP2 SWAP1 PUSH2 0x8FA JUMP JUMPDEST PUSH2 0x48B JUMP JUMPDEST STOP JUMPDEST CALLVALUE DUP1 ISZERO PUSH2 0x17F JUMPI PUSH1 0x0 DUP1 REVERT JUMPDEST POP PUSH2 0x19A PUSH1 0x4 DUP1 CALLDATASIZE SUB DUP2 ADD SWAP1 PUSH2 0x195 SWAP2 SWAP1 PUSH2 0x86B JUMP JUMPDEST PUSH2 0x636 JUMP JUMPDEST PUSH1 0x40 MLOAD PUSH2 0x1A7 SWAP2 SWAP1 PUSH2 0x7C3 JUMP JUMPDEST PUSH1 0x40 MLOAD DUP1 SWAP2 SUB SWAP1 RETURN JUMPDEST CALLVALUE DUP1 ISZERO PUSH2 0x1BC JUMPI PUSH1 0x0 DUP1 REVERT JUMPDEST POP PUSH2 0x1D7 PUSH1 0x4 DUP1 CALLDATASIZE SUB DUP2 ADD SWAP1 PUSH2 0x1D2 SWAP2 SWAP1 PUSH2 0x86B JUMP JUMPDEST PUSH2 0x684 JUMP JUMPDEST STOP JUMPDEST CALLVALUE DUP1 ISZERO PUSH2 0x1E5 JUMPI PUSH1 0x0 DUP1 REVERT JUMPDEST POP PUSH2 0x1EE PUSH2 0x78C JUMP JUMPDEST PUSH1 0x40 MLOAD PUSH2 0x1FB SWAP2 SWAP1 PUSH2 0x7C3 JUMP JUMPDEST PUSH1 0x40 MLOAD DUP1 SWAP2 SUB SWAP1 RETURN JUMPDEST CALLVALUE DUP1 ISZERO PUSH2 0x210 JUMPI PUSH1 0x0 DUP1 REVERT JUMPDEST POP PUSH2 0x22B PUSH1 0x4 DUP1 CALLDATASIZE SUB DUP2 ADD SWAP1 PUSH2 0x226 SWAP2 SWAP1 PUSH2 0x86B JUMP JUMPDEST PUSH2 0x792 JUMP JUMPDEST PUSH1 0x40 MLOAD PUSH2 0x238 SWAP2 SWAP1 PUSH2 0x7C3 JUMP JUMPDEST PUSH1 0x40 MLOAD DUP1 SWAP2 SUB SWAP1 RETURN JUMPDEST PUSH32 0x0 PUSH20 0xFFFFFFFFFFFFFFFFFFFFFFFFFFFFFFFFFFFFFFFF AND CALLER PUSH20 0xFFFFFFFFFFFFFFFFFFFFFFFFFFFFFFFFFFFFFFFF AND EQ PUSH2 0x2CF JUMPI PUSH1 0x40 MLOAD PUSH32 0x8C379A000000000000000000000000000000000000000000000000000000000 DUP2 MSTORE PUSH1 0x4 ADD PUSH2 0x2C6 SWAP1 PUSH2 0x9E3 JUMP JUMPDEST PUSH1 0x40 MLOAD DUP1 SWAP2 SUB SWAP1 REVERT JUMPDEST PUSH1 0x0 PUSH1 0x2 PUSH1 0x0 ADDRESS PUSH20 0xFFFFFFFFFFFFFFFFFFFFFFFFFFFFFFFFFFFFFFFF AND PUSH20 0xFFFFFFFFFFFFFFFFFFFFFFFFFFFFFFFFFFFFFFFF AND DUP2 MSTORE PUSH1 0x20 ADD SWAP1 DUP2 MSTORE PUSH1 0x20 ADD PUSH1 0x0 KECCAK256 DUP2 SWAP1 SSTORE POP JUMP JUMPDEST PUSH1 0x1 DUP2 JUMP JUMPDEST PUSH32 0x0 DUP2 JUMP JUMPDEST PUSH1 0x3 PUSH1 0x20 MSTORE DUP1 PUSH1 0x0 MSTORE PUSH1 0x40 PUSH1 0x0 KECCAK256 PUSH1 0x0 SWAP2 POP SLOAD SWAP1 PUSH2 0x100 EXP SWAP1 DIV PUSH1 0xFF AND DUP2 JUMP JUMPDEST PUSH32 0x0 PUSH20 0xFFFFFFFFFFFFFFFFFFFFFFFFFFFFFFFFFFFFFFFF AND CALLER PUSH20 0xFFFFFFFFFFFFFFFFFFFFFFFFFFFFFFFFFFFFFFFF AND EQ PUSH2 0x3ED JUMPI PUSH1 0x40 MLOAD PUSH32 0x8C379A000000000000000000000000000000000000000000000000000000000 DUP2 MSTORE PUSH1 0x4 ADD PUSH2 0x3E4 SWAP1 PUSH2 0x9E3 JUMP JUMPDEST PUSH1 0x40 MLOAD DUP1 SWAP2 SUB SWAP1 REVERT JUMPDEST PUSH1 0x2 PUSH1 0x0 ADDRESS PUSH20 0xFFFFFFFFFFFFFFFFFFFFFFFFFFFFFFFFFFFFFFFF AND PUSH20 0xFFFFFFFFFFFFFFFFFFFFFFFFFFFFFFFFFFFFFFFF AND DUP2 MSTORE PUSH1 0x20 ADD SWAP1 DUP2 MSTORE PUSH1 0x20 ADD PUSH1 0x0 KECCAK256 SLOAD PUSH1 0x0 DUP1 DUP3 DUP3 SLOAD PUSH2 0x43D SWAP2 SWAP1 PUSH2 0xA32 JUMP JUMPDEST SWAP3 POP POP DUP2 SWAP1 SSTORE POP PUSH1 0x0 PUSH1 0x2 PUSH1 0x0 ADDRESS PUSH20 0xFFFFFFFFFFFFFFFFFFFFFFFFFFFFFFFFFFFFFFFF AND PUSH20 0xFFFFFFFFFFFFFFFFFFFFFFFFFFFFFFFFFFFFFFFF AND DUP2 MSTORE PUSH1 0x20 ADD SWAP1 DUP2 MSTORE PUSH1 0x20 ADD PUSH1 0x0 KECCAK256 DUP2 SWAP1 SSTORE POP JUMP JUMPDEST PUSH1 0x0 PUSH1 0x64 DUP3 PUSH2 0x49A SWAP2 SWAP1 PUSH2 0xA95 JUMP JUMPDEST SWAP1 POP PUSH1 0x0 DUP2 DUP4 PUSH2 0x4AA SWAP2 SWAP1 PUSH2 0xA32 JUMP JUMPDEST SWAP1 POP DUP1 PUSH1 0x2 PUSH1 0x0 CALLER PUSH20 0xFFFFFFFFFFFFFFFFFFFFFFFFFFFFFFFFFFFFFFFF AND PUSH20 0xFFFFFFFFFFFFFFFFFFFFFFFFFFFFFFFFFFFFFFFF AND DUP2 MSTORE PUSH1 0x20 ADD SWAP1 DUP2 MSTORE PUSH1 0x20 ADD PUSH1 0x0 KECCAK256 SLOAD LT ISZERO PUSH2 0x52E JUMPI PUSH1 0x40 MLOAD PUSH32 0x8C379A000000000000000000000000000000000000000000000000000000000 DUP2 MSTORE PUSH1 0x4 ADD PUSH2 0x525 SWAP1 PUSH2 0xB38 JUMP JUMPDEST PUSH1 0x40 MLOAD DUP1 SWAP2 SUB SWAP1 REVERT JUMPDEST DUP1 PUSH1 0x2 PUSH1 0x0 CALLER PUSH20 0xFFFFFFFFFFFFFFFFFFFFFFFFFFFFFFFFFFFFFFFF AND PUSH20 0xFFFFFFFFFFFFFFFFFFFFFFFFFFFFFFFFFFFFFFFF AND DUP2 MSTORE PUSH1 0x20 ADD SWAP1 DUP2 MSTORE PUSH1 0x20 ADD PUSH1 0x0 KECCAK256 PUSH1 0x0 DUP3 DUP3 SLOAD PUSH2 0x57D SWAP2 SWAP1 PUSH2 0xB58 JUMP JUMPDEST SWAP3 POP POP DUP2 SWAP1 SSTORE POP DUP2 PUSH1 0x2 PUSH1 0x0 ADDRESS PUSH20 0xFFFFFFFFFFFFFFFFFFFFFFFFFFFFFFFFFFFFFFFF AND PUSH20 0xFFFFFFFFFFFFFFFFFFFFFFFFFFFFFFFFFFFFFFFF AND DUP2 MSTORE PUSH1 0x20 ADD SWAP1 DUP2 MSTORE PUSH1 0x20 ADD PUSH1 0x0 KECCAK256 PUSH1 0x0 DUP3 DUP3 SLOAD PUSH2 0x5D3 SWAP2 SWAP1 PUSH2 0xA32 JUMP JUMPDEST SWAP3 POP POP DUP2 SWAP1 SSTORE POP DUP3 PUSH1 0x2 PUSH1 0x0 DUP7 PUSH20 0xFFFFFFFFFFFFFFFFFFFFFFFFFFFFFFFFFFFFFFFF AND PUSH20 0xFFFFFFFFFFFFFFFFFFFFFFFFFFFFFFFFFFFFFFFF AND DUP2 MSTORE PUSH1 0x20 ADD SWAP1 DUP2 MSTORE PUSH1 0x20 ADD PUSH1 0x0 KECCAK256 PUSH1 0x0 DUP3 DUP3 SLOAD PUSH2 0x629 SWAP2 SWAP1 PUSH2 0xA32 JUMP JUMPDEST SWAP3 POP POP DUP2 SWAP1 SSTORE POP POP POP POP POP JUMP JUMPDEST PUSH1 0x0 DUP1 PUSH1 0x2 PUSH1 0x0 DUP5 PUSH20 0xFFFFFFFFFFFFFFFFFFFFFFFFFFFFFFFFFFFFFFFF AND PUSH20 0xFFFFFFFFFFFFFFFFFFFFFFFFFFFFFFFFFFFFFFFF AND DUP2 MSTORE PUSH1 0x20 ADD SWAP1 DUP2 MSTORE PUSH1 0x20 ADD PUSH1 0x0 KECCAK256 SLOAD SWAP1 POP DUP1 SWAP2 POP POP SWAP2 SWAP1 POP JUMP JUMPDEST PUSH1 0x1 ISZERO ISZERO PUSH1 0x3 PUSH1 0x0 DUP4 PUSH20 0xFFFFFFFFFFFFFFFFFFFFFFFFFFFFFFFFFFFFFFFF AND PUSH20 0xFFFFFFFFFFFFFFFFFFFFFFFFFFFFFFFFFFFFFFFF AND DUP2 MSTORE PUSH1 0x20 ADD SWAP1 DUP2 MSTORE PUSH1 0x20 ADD PUSH1 0x0 KECCAK256 PUSH1 0x0 SWAP1 SLOAD SWAP1 PUSH2 0x100 EXP SWAP1 DIV PUSH1 0xFF AND ISZERO ISZERO SUB PUSH2 0x717 JUMPI PUSH1 0x40 MLOAD PUSH32 0x8C379A000000000000000000000000000000000000000000000000000000000 DUP2 MSTORE PUSH1 0x4 ADD PUSH2 0x70E SWAP1 PUSH2 0xBFE JUMP JUMPDEST PUSH1 0x40 MLOAD DUP1 SWAP2 SUB SWAP1 REVERT JUMPDEST PUSH1 0x1 SLOAD PUSH1 0x0 DUP1 DUP3 DUP3 SLOAD PUSH2 0x72A SWAP2 SWAP1 PUSH2 0xB58 JUMP JUMPDEST SWAP3 POP POP DUP2 SWAP1 SSTORE POP PUSH1 0x1 SLOAD PUSH1 0x2 PUSH1 0x0 DUP4 PUSH20 0xFFFFFFFFFFFFFFFFFFFFFFFFFFFFFFFFFFFFFFFF AND PUSH20 0xFFFFFFFFFFFFFFFFFFFFFFFFFFFFFFFFFFFFFFFF AND DUP2 MSTORE PUSH1 0x20 ADD SWAP1 DUP2 MSTORE PUSH1 0x20 ADD PUSH1 0x0 KECCAK256 PUSH1 0x0 DUP3 DUP3 SLOAD PUSH2 0x782 SWAP2 SWAP1 PUSH2 0xA32 JUMP JUMPDEST SWAP3 POP POP DUP2 SWAP1 SSTORE POP POP JUMP JUMPDEST PUSH1 0x0 SLOAD DUP2 JUMP JUMPDEST PUSH1 0x2 PUSH1 0x20 MSTORE DUP1 PUSH1 0x0 MSTORE PUSH1 0x40 PUSH1 0x0 KECCAK256 PUSH1 0x0 SWAP2 POP SWAP1 POP SLOAD DUP2 JUMP JUMPDEST PUSH1 0x0 DUP2 SWAP1 POP SWAP2 SWAP1 POP JUMP JUMPDEST PUSH2 0x7BD DUP2 PUSH2 0x7AA JUMP JUMPDEST DUP3 MSTORE POP POP JUMP JUMPDEST PUSH1 0x0 PUSH1 0x20 DUP3 ADD SWAP1 POP PUSH2 0x7D8 PUSH1 0x0 DUP4 ADD DUP5 PUSH2 0x7B4 JUMP JUMPDEST SWAP3 SWAP2 POP POP JUMP JUMPDEST PUSH1 0x0 PUSH20 0xFFFFFFFFFFFFFFFFFFFFFFFFFFFFFFFFFFFFFFFF DUP3 AND SWAP1 POP SWAP2 SWAP1 POP JUMP JUMPDEST PUSH1 0x0 PUSH2 0x809 DUP3 PUSH2 0x7DE JUMP JUMPDEST SWAP1 POP SWAP2 SWAP1 POP JUMP JUMPDEST PUSH2 0x819 DUP2 PUSH2 0x7FE JUMP JUMPDEST DUP3 MSTORE POP POP JUMP JUMPDEST PUSH1 0x0 PUSH1 0x20 DUP3 ADD SWAP1 POP PUSH2 0x834 PUSH1 0x0 DUP4 ADD DUP5 PUSH2 0x810 JUMP JUMPDEST SWAP3 SWAP2 POP POP JUMP JUMPDEST PUSH1 0x0 DUP1 REVERT JUMPDEST PUSH2 0x848 DUP2 PUSH2 0x7FE JUMP JUMPDEST DUP2 EQ PUSH2 0x853 JUMPI PUSH1 0x0 DUP1 REVERT JUMPDEST POP JUMP JUMPDEST PUSH1 0x0 DUP2 CALLDATALOAD SWAP1 POP PUSH2 0x865 DUP2 PUSH2 0x83F JUMP JUMPDEST SWAP3 SWAP2 POP POP JUMP JUMPDEST PUSH1 0x0 PUSH1 0x20 DUP3 DUP5 SUB SLT ISZERO PUSH2 0x881 JUMPI PUSH2 0x880 PUSH2 0x83A JUMP JUMPDEST JUMPDEST PUSH1 0x0 PUSH2 0x88F DUP5 DUP3 DUP6 ADD PUSH2 0x856 JUMP JUMPDEST SWAP2 POP POP SWAP3 SWAP2 POP POP JUMP JUMPDEST PUSH1 0x0 DUP2 ISZERO ISZERO SWAP1 POP SWAP2 SWAP1 POP JUMP JUMPDEST PUSH2 0x8AD DUP2 PUSH2 0x898 JUMP JUMPDEST DUP3 MSTORE POP POP JUMP JUMPDEST PUSH1 0x0 PUSH1 0x20 DUP3 ADD SWAP1 POP PUSH2 0x8C8 PUSH1 0x0 DUP4 ADD DUP5 PUSH2 0x8A4 JUMP JUMPDEST SWAP3 SWAP2 POP POP JUMP JUMPDEST PUSH2 0x8D7 DUP2 PUSH2 0x7AA JUMP JUMPDEST DUP2 EQ PUSH2 0x8E2 JUMPI PUSH1 0x0 DUP1 REVERT JUMPDEST POP JUMP JUMPDEST PUSH1 0x0 DUP2 CALLDATALOAD SWAP1 POP PUSH2 0x8F4 DUP2 PUSH2 0x8CE JUMP JUMPDEST SWAP3 SWAP2 POP POP JUMP JUMPDEST PUSH1 0x0 DUP1 PUSH1 0x40 DUP4 DUP6 SUB SLT ISZERO PUSH2 0x911 JUMPI PUSH2 0x910 PUSH2 0x83A JUMP JUMPDEST JUMPDEST PUSH1 0x0 PUSH2 0x91F DUP6 DUP3 DUP7 ADD PUSH2 0x856 JUMP JUMPDEST SWAP3 POP POP PUSH1 0x20 PUSH2 0x930 DUP6 DUP3 DUP7 ADD PUSH2 0x8E5 JUMP JUMPDEST SWAP2 POP POP SWAP3 POP SWAP3 SWAP1 POP JUMP JUMPDEST PUSH1 0x0 DUP3 DUP3 MSTORE PUSH1 0x20 DUP3 ADD SWAP1 POP SWAP3 SWAP2 POP POP JUMP JUMPDEST PUSH32 0x596F7520646F206E6F7420686176652061636365737320746F20746869732066 PUSH1 0x0 DUP3 ADD MSTORE PUSH32 0x756E6374696F6E20617320796F7520617265206E6F7420746865206F776E6572 PUSH1 0x20 DUP3 ADD MSTORE PUSH32 0x206F66207468697320736D61727420636F6E74726163742E0000000000000000 PUSH1 0x40 DUP3 ADD MSTORE POP JUMP JUMPDEST PUSH1 0x0 PUSH2 0x9CD PUSH1 0x58 DUP4 PUSH2 0x93A JUMP JUMPDEST SWAP2 POP PUSH2 0x9D8 DUP3 PUSH2 0x94B JUMP JUMPDEST PUSH1 0x60 DUP3 ADD SWAP1 POP SWAP2 SWAP1 POP JUMP JUMPDEST PUSH1 0x0 PUSH1 0x20 DUP3 ADD SWAP1 POP DUP2 DUP2 SUB PUSH1 0x0 DUP4 ADD MSTORE PUSH2 0x9FC DUP2 PUSH2 0x9C0 JUMP JUMPDEST SWAP1 POP SWAP2 SWAP1 POP JUMP JUMPDEST PUSH32 0x4E487B7100000000000000000000000000000000000000000000000000000000 PUSH1 0x0 MSTORE PUSH1 0x11 PUSH1 0x4 MSTORE PUSH1 0x24 PUSH1 0x0 REVERT JUMPDEST PUSH1 0x0 PUSH2 0xA3D DUP3 PUSH2 0x7AA JUMP JUMPDEST SWAP2 POP PUSH2 0xA48 DUP4 PUSH2 0x7AA JUMP JUMPDEST SWAP3 POP DUP3 DUP3 ADD SWAP1 POP DUP1 DUP3 GT ISZERO PUSH2 0xA60 JUMPI PUSH2 0xA5F PUSH2 0xA03 JUMP JUMPDEST JUMPDEST SWAP3 SWAP2 POP POP JUMP JUMPDEST PUSH32 0x4E487B7100000000000000000000000000000000000000000000000000000000 PUSH1 0x0 MSTORE PUSH1 0x12 PUSH1 0x4 MSTORE PUSH1 0x24 PUSH1 0x0 REVERT JUMPDEST PUSH1 0x0 PUSH2 0xAA0 DUP3 PUSH2 0x7AA JUMP JUMPDEST SWAP2 POP PUSH2 0xAAB DUP4 PUSH2 0x7AA JUMP JUMPDEST SWAP3 POP DUP3 PUSH2 0xABB JUMPI PUSH2 0xABA PUSH2 0xA66 JUMP JUMPDEST JUMPDEST DUP3 DUP3 DIV SWAP1 POP SWAP3 SWAP2 POP POP JUMP JUMPDEST PUSH32 0x596F75722077616C6C657420646F6573206E6F74206861766520746865206675 PUSH1 0x0 DUP3 ADD MSTORE PUSH32 0x6E647320666F722074686973207472616E73616374696F6E0000000000000000 PUSH1 0x20 DUP3 ADD MSTORE POP JUMP JUMPDEST PUSH1 0x0 PUSH2 0xB22 PUSH1 0x38 DUP4 PUSH2 0x93A JUMP JUMPDEST SWAP2 POP PUSH2 0xB2D DUP3 PUSH2 0xAC6 JUMP JUMPDEST PUSH1 0x40 DUP3 ADD SWAP1 POP SWAP2 SWAP1 POP JUMP JUMPDEST PUSH1 0x0 PUSH1 0x20 DUP3 ADD SWAP1 POP DUP2 DUP2 SUB PUSH1 0x0 DUP4 ADD MSTORE PUSH2 0xB51 DUP2 PUSH2 0xB15 JUMP JUMPDEST SWAP1 POP SWAP2 SWAP1 POP JUMP JUMPDEST PUSH1 0x0 PUSH2 0xB63 DUP3 PUSH2 0x7AA JUMP JUMPDEST SWAP2 POP PUSH2 0xB6E DUP4 PUSH2 0x7AA JUMP JUMPDEST SWAP3 POP DUP3 DUP3 SUB SWAP1 POP DUP2 DUP2 GT ISZERO PUSH2 0xB86 JUMPI PUSH2 0xB85 PUSH2 0xA03 JUMP JUMPDEST JUMPDEST SWAP3 SWAP2 POP POP JUMP JUMPDEST PUSH32 0x596F75722077616C6C657420616C72656164792072656365697665642066756E PUSH1 0x0 DUP3 ADD MSTORE PUSH32 0x6473000000000000000000000000000000000000000000000000000000000000 PUSH1 0x20 DUP3 ADD MSTORE POP JUMP JUMPDEST PUSH1 0x0 PUSH2 0xBE8 PUSH1 0x22 DUP4 PUSH2 0x93A JUMP JUMPDEST SWAP2 POP PUSH2 0xBF3 DUP3 PUSH2 0xB8C JUMP JUMPDEST PUSH1 0x40 DUP3 ADD SWAP1 POP SWAP2 SWAP1 POP JUMP JUMPDEST PUSH1 0x0 PUSH1 0x20 DUP3 ADD SWAP1 POP DUP2 DUP2 SUB PUSH1 0x0 DUP4 ADD MSTORE PUSH2 0xC17 DUP2 PUSH2 0xBDB JUMP JUMPDEST SWAP1 POP SWAP2 SWAP1 POP JUMP INVALID LOG2 PUSH5 0x6970667358 0x22 SLT KECCAK256 0xD0 RETURN PUSH18 0x87D9498EC42A0450B6ED0D3A814087E4169E BALANCE CALLDATACOPY PUSH8 0x6A3E7912C34AAE98 PUSH5 0x736F6C6343 STOP ADDMOD SLT STOP CALLER "
				},
				"gasEstimates": {
					"creation": {
						"codeDepositCost": "631200",
						"executionCost": "infinite",
						"totalCost": "infinite"
					},
					"external": {
						"burnTokens()": "infinite",
						"faucet(address)": "infinite",
						"initialTokenSupply()": "2495",
						"ledger(address)": "2902",
						"owner()": "infinite",
						"receivedCoin(address)": "2912",
						"remintTokens()": "infinite",
						"tokenAmount(address)": "2876",
						"transactionFeePercent()": "352",
						"transfer(address,uint256)": "infinite"
					}
				},
				"methodIdentifiers": {
					"burnTokens()": "08003f78",
					"faucet(address)": "b86d1d63",
					"initialTokenSupply()": "eb13a7d2",
					"ledger(address)": "fbfa941f",
					"owner()": "8da5cb5b",
					"receivedCoin(address)": "8ee17775",
					"remintTokens()": "9101150e",
					"tokenAmount(address)": "a96b7f05",
					"transactionFeePercent()": "0c8f5e00",
					"transfer(address,uint256)": "a9059cbb"
				}
			},
			"storageLayout": {
				"storage": [
					{
						"astId": 4,
						"contract": "contracts/AdamToken.sol:AdamToken",
						"label": "initialTokenSupply",
						"offset": 0,
						"slot": "0",
						"type": "t_uint256"
					},
					{
						"astId": 7,
						"contract": "contracts/AdamToken.sol:AdamToken",
						"label": "faucetAmount",
						"offset": 0,
						"slot": "1",
						"type": "t_uint256"
					},
					{
						"astId": 17,
						"contract": "contracts/AdamToken.sol:AdamToken",
						"label": "ledger",
						"offset": 0,
						"slot": "2",
						"type": "t_mapping(t_address,t_uint256)"
					},
					{
						"astId": 21,
						"contract": "contracts/AdamToken.sol:AdamToken",
						"label": "receivedCoin",
						"offset": 0,
						"slot": "3",
						"type": "t_mapping(t_address,t_bool)"
					}
				],
				"types": {
					"t_address": {
						"encoding": "inplace",
						"label": "address",
						"numberOfBytes": "20"
					},
					"t_bool": {
						"encoding": "inplace",
						"label": "bool",
						"numberOfBytes": "1"
					},
					"t_mapping(t_address,t_bool)": {
						"encoding": "mapping",
						"key": "t_address",
						"label": "mapping(address => bool)",
						"numberOfBytes": "32",
						"value": "t_bool"
					},
					"t_mapping(t_address,t_uint256)": {
						"encoding": "mapping",
						"key": "t_address",
						"label": "mapping(address => uint256)",
						"numberOfBytes": "32",
						"value": "t_uint256"
					},
					"t_uint256": {
						"encoding": "inplace",
						"label": "uint256",
						"numberOfBytes": "32"
					}
				}
			},
			"userdoc": {
				"kind": "user",
				"methods": {},
				"version": 1
			}
		}
	}
}